:100000000C943B000C9458000C9458000C94CC01B8
:100010000C9458000C9458000C9458000C94580000
:100020000C9458000C9458000C9458000C945A00EE
:100030000C940E010C9458000C947D010C94580003
:100040000C9458000C9458000C941B030C9458000A
:100050000C942E030C9458000C9458000C945800E7
:100060000C9458000C945800B204BD04CF04F7045B
:1000700051055105710511241FBECFEFD8E0DEBF39
:10008000CDBF12E0A0E0B1E0EEE8F2E102C00590E1
:100090000D92AC30B107D9F712E0ACE0B2E001C08C
:1000A0001D92A533B107E1F70E9448070C9445095A
:1000B0000C9400001F920F920FB60F9211242F93F1
:1000C0003F934F935F936F937F938F939F93EF93A0
:1000D000FF9381E080932D028091190290911A0282
:1000E000892B29F080910C02813009F07BC080E0DF
:1000F00090E020E030E0AC01440F551FFA01E75ECC
:10010000FD4F60817181260F371FFA01E15FFD4FBE
:100110003183208301968530910569F781E08093D2
:100120000E0280910C028130A9F410921A021092F2
:10013000190210921C0210921B0210921E021092C1
:100140001D021092200210921F02109222021092A1
:10015000210222C080910C0281111EC080ED97E027
:1001600090931A028093190284EC99E090931C02F8
:1001700080931B0288EB9BE090931E0280931D02EC
:100180008CEA9DE09093200280931F0280EA9FE01A
:10019000909322028093210280910D028F5F8093C1
:1001A0000D02863060F181E080930C0210922E02E5
:1001B000109224021092230210922602109225021D
:1001C000109228021092270210922A0210922902FD
:1001D00010922C0210922B0240984198429843981A
:1001E00044980DC028B181E090E00090060102C063
:1001F000880F991F0A94E2F7282B28B978CFFF912E
:10020000EF919F918F917F916F915F914F913F916E
:100210002F910F900FBE0F901F9018951F920F9265
:100220000FB60F9211242F933F934F935F938F93A9
:100230009F93EF93FF9380912D02882309F450C080
:10024000E0912D0248B1F0E0EB5FFE4F21E030E09D
:10025000C901008002C0880F991F0A94E2F78095B7
:10026000909550E08423952388B980912D028530A4
:1002700068F5E0912D02F0E0EE0FFF1FE15FFD4F0A
:100280008081918190938B0080938A00E0912D0270
:10029000F0E0EE0FFF1FE75EFD4F80819181892B1B
:1002A00079F0E0912D0248B1F0E0EA5FFE4FC9011C
:1002B000008002C0880F991F0A94E2F7842B88B946
:1002C00080912D028F5F80932D020AC080910F02D2
:1002D0009091100290938B0080938A0010922D02CF
:1002E000FF91EF919F918F915F914F913F912F914E
:1002F0000F900FBE0F901F9018951F920F920FB680
:100300000F9211248F939F9380912E0280FF09C03A
:10031000809123029091240201969093240280936D
:10032000230280912E0281FF09C0809125029091C5
:1003300026020196909326028093250280912E0238
:1003400082FF09C080912702909128020196909324
:1003500028028093270280912E0283FF09C080919A
:10036000290290912A02019690932A0280932902F1
:1003700080912E0284FF09C080912B0290912C0263
:10038000019690932C0280932B029F918F910F9056
:100390000FBE0F901F9018951F920F920FB60F92DD
:1003A00011242F933F934F935F938F939F9343B168
:1003B00080910001482783B18093000110920D02C3
:1003C00010920C0240FF2EC0189B06C080912E0296
:1003D000816080932E0226C080912E0280FF22C071
:1003E000189920C080912E028E7F80932E028091DA
:1003F0002302909124020196909324028093230279
:10040000209123023091240254E1529FC001539F56
:10041000900D112490931A028093190210922402D5
:100420001092230241FF2EC0199B06C080912E021C
:10043000826080932E0226C080912E0281FF22C00E
:10044000199920C080912E028D7F80932E02809179
:100450002502909126020196909326028093250210
:10046000209125023091260254E1529FC001539FF2
:10047000900D112490931C0280931B02109226026F
:100480001092250242FF2EC01A9B06C080912E02B8
:10049000846080932E0226C080912E0282FF22C0AB
:1004A0001A9920C080912E028B7F80932E0280911A
:1004B00027029091280201969093280280932702A8
:1004C000209127023091280254E1529FC001539F8E
:1004D000900D112490931E0280931D021092280209
:1004E0001092270243FF2EC01B9B06C080912E0254
:1004F000886080932E0226C080912E0283FF22C046
:100500001B9920C080912E02877F80932E028091BC
:10051000290290912A02019690932A02809329023F
:100520002091290230912A0254E1529FC001539F29
:10053000900D11249093200280931F0210922A02A2
:100540001092290244FF30C010920D021C9B06C07D
:1005500080912E02806180932E0226C080912E020F
:1005600084FF22C01C9920C080912E028F7E809330
:100570002E0280912B0290912C02019690932C02D6
:1005800080932B0220912B0230912C0244E1429F58
:10059000C001439F900D1124909322028093210269
:1005A00010922C0210922B029F918F915F914F918C
:1005B0003F912F910F900FBE0F901F901895CF93E2
:1005C000C62F9C0140E050E084E0220F331F441FFF
:1005D000551F8A95D1F760E074E284EF90E00E94A5
:1005E000EF07215031093093C5002093C40080915A
:1005F000C2008E608093C2008091C10088618093A8
:10060000C100CC2331F08091C100806C8093C10087
:100610007894CF9108959091C00095FFFCCF80937E
:10062000C60010922F0208958091C00087FFFCCF72
:100630008091C60008951F920F920FB60F92112459
:100640008F938091C6008093310281E080933002C5
:100650008F910F900FBE0F901F9018951F920F92C1
:100660000FB60F9211248F9381E080932F028F9108
:100670000F900FBE0F901F901895CF93DF93EC0152
:1006800061E080E091EE0E94DF02FE01EE5BFF4F31
:100690001082118212821382FE01EA5BFF4F1082E8
:1006A000118212821382FE01E65BFF4F1082FE016F
:1006B000E55BFF4F1082118212821382FE01E15B23
:1006C000FF4F1082FE01E05BFF4F1082FE01EF5AE8
:1006D000FF4F1082188219821B821C821D821E828B
:1006E0001F82188619861A861B861C861D861E8602
:1006F0001F86188A198A1AA61BA61CA61DA61EA646
:100700001FA618AA19AA1AAA1BAA1DAA1CAA1EAAC1
:100710001FAA18AE19AE1BAE1AAE1DAE1CAE1FAE90
:100720001EAEC05CDF4F19821882DF91CF91089511
:10073000089580E090E00895640F751FFB018285A5
:100740000895640F751FFB01848595850895640FD6
:10075000751FFB0164857585868597850895640FEF
:10076000751FFB0164857585868597850895BF9201
:10077000CF92DF92EF92FF920F931F93CF93DF936D
:100780008B01FB0180810E940B03E801C75FDE4FF4
:100790001882F801F1808F2D0E940B03EF2DFF27A7
:1007A000E7FDF0958881E827E55FFE4F808188832B
:1007B000F801F2808F2D0E940B03EF2DFF27E7FD3C
:1007C000F0958881E827E55FFE4F80818883F801F6
:1007D000F3808F2D0E940B03EF2DFF27E7FDF0958F
:1007E0008881E827E55FFE4F80818883F801F480E7
:1007F0008F2D0E940B03EF2DFF27E7FDF0958881D9
:10080000E827E55FFE4F80818883F801C480D580AA
:10081000E680F780CD2CDE2CEF2CFF248C2D0E945F
:100820000B03EC2DFF27E7FDF0958881E827E55FB6
:10083000FE4F80818883F801C480D580E680F780F0
:100840006701EE24FF248C2D0E940B03EC2DFF2763
:10085000E7FDF0958881E827E55FFE4F808188837A
:10086000F801C480D580E680F780CF2CDD24EE240B
:10087000FF248C2D0E940B03EC2DFF27E7FDF09544
:100880008881E827E55FFE4F80818883F8018281B7
:100890009381099760F48881DF91CF911F910F9127
:1008A000FF90EF90DF90CF90BF900C940B03680106
:1008B000FAE0CF0ED11C76012E2D2C1930E0F80174
:1008C0008281938108972817390728F7F701B1909B
:1008D0007F018B2D0E940B03EB2DFF27E7FDF09589
:1008E0008881E827E55FFE4F80818883E5CFCF933D
:1008F000DF93CDB7DEB7CA50D1400FB6F894DEBF54
:100900000FBECDBF2CE329834A8328E030E03C832F
:100910002B83FB0144815581668177814D835E8302
:100920006F837887BE016F5F7F4F0E94B703C65FFA
:10093000DE4F0FB6F894DEBF0FBECDBFDF91CF9173
:1009400008950F931F93CF93DF93EA0180913402B0
:1009500090E08730910508F0CBC08C5C9F4FFC0184
:100960000C9411086C3309F0C3C081E08093340209
:10097000688384EB80933302BBC0A0913302A62727
:10098000B0E0A55FBE4F8C9180933302862F887FA5
:10099000803241F582E08093340269839FC0A09148
:1009A0003302A627B0E0A55FBE4F8C91809333023F
:1009B000809132028F5F80933202062F10E08230E6
:1009C00018F41B830A8394C0102F00278A819B810F
:1009D000080F191F1B830A83085011090F3F1105C7
:1009E00021F018F01092340283C083E075C0A0910A
:1009F0003302A627B0E0A55FBE4F8C9180933302EF
:100A0000409132024F5F40933202423091F060F4E5
:100A1000413009F06DC0062F10E020E030E00C837B
:100A20001D832E833F8364C0433061F04430F1F076
:100A30005FC0062F10E020E030E0322F212F102F72
:100A4000002707C0062F10E020E030E098011127B2
:100A500000278C819D81AE81BF81800F911FA21FD5
:100A6000B31F8C839D83AE83BF8342C0062F10E0EB
:100A700020E030E0302F2227112700278C819D8134
:100A8000AE81BF81800F911FA21FB31F8C839D83F6
:100A9000AE83BF838A819B810897E9F0409334023B
:100AA0001DC0A0913302A627B0E0A55FBE4F8C9178
:100AB00080933302209132022F5F2093320230E084
:100AC000DA01A20FB31F19966C938A819B81089754
:100AD0002817390768F086E08093340210923202BA
:100AE00007C0DA01A75FBE4F6C9387E080933402A2
:100AF00080913402873011F080E00BC010923402F4
:100B000090913302DE01A75FBE4F8C919813F4CF12
:100B10008A81DF91CF911F910F9108950F931F93B9
:100B2000CF93DF93CDB7DEB7CA50D1400FB6F8945C
:100B3000DEBF0FBECDBF8C01809130028823E1F370
:100B40006091310210923002AE014F5F5F4FC801D9
:100B50000E94A104882381F34D815E816F81788595
:100B6000423C8BEF58078CEE68078CE6780709F457
:100B7000FDC008F04CC04230F9E25F07FEE76F07A6
:100B8000FFE27F0709F4A9C008F54430EAE95E07EF
:100B9000E7ED6E07EEE07E0709F4E8C038F4463171
:100BA0005A4A67437B4009F4E1C05AC14E3CE8E42D
:100BB0005E07E7E56E07EAE17E0709F4DFC0443728
:100BC0005B4E6A477B4109F4D1C04AC14E3488EC80
:100BD00058078CEB680780E4780709F4CFC038F435
:100BE000463E554D6A4D734309F48CC039C1423EAF
:100BF00085E558078CE9680786E6780709F423C17C
:100C00004A355B4B6743774609F467C029C14A3BC5
:100C1000F4E85F07F5E26F07FEEB7F0709F413C105
:100C2000E0F54E37E2E15E07EAE66E07EBE97E07A4
:100C300009F49CC000F54A3051486D427C4809F0E7
:100C40000FC18D859E85AF85B889F801868F978FF6
:100C5000A0A3B1A389899A89AB89BC8982A393A3F4
:100C6000A4A3B5A38D899E89AF89B88D86A397A3C8
:100C7000A0A7B1A7F5C04630EEE05E07ECE36E0733
:100C8000EDEA7E0709F458C04A38574F674C784B55
:100C900009F0E6C08DA1F8016FC0463985E3580719
:100CA00088E0680782ED780709F4A3C038F444357A
:100CB0005D426F4F754C09F459C0D2C0443689ED7E
:100CC000580780EE680787ED7807E1F0463B53420E
:100CD000634A724E09F452C0C3C0F801EF5AFF4F85
:100CE0008081FE01E80FF11D8385823031F0833071
:100CF00029F08111B5C081E001C083E0F801E65B15
:100D0000FF4F3AC08D8D9E8DAF8DB8A1F8018683BF
:100D10009783A087B18789A19AA1ABA1BCA1828743
:100D20009387A487B5878DA19EA1AFA1B8A586871B
:100D30009787A08BB18B94C08D859E85AF85B88930
:100D4000F801828B938BA48BB58B89899A89AB89A7
:100D5000BC89868B978BA08FB18F8D899E89AF8937
:100D6000B88D828F938FA48FB58F7AC08B85F80151
:100D700084838C85858374C0808372C08D859E85B5
:100D8000AF85B889F80182A793A7A4A7B5A78989D9
:100D90009A89AB89BC8986A797A7A0ABB1AB88A974
:100DA00082AB8FA583AB6D8D7E8D8F8D98A10E94B8
:100DB0001708F80175AB64AB20E030E048EC52E472
:100DC0006D897E898F89988D0E9471080E94D40850
:100DD0000E941708F80166AB77AB80AF91AF69A1AD
:100DE0007AA18BA19CA10E941C08F80173AF62AF8D
:100DF00037C020E030E04AE754E46D857E858F857A
:100E000098890E9471080E941708F80175AF64AFB5
:100E100020E030E048EC52E469897A898B899C892A
:100E20000E9471080E941708F80177AF66AF69A1A8
:100E30007AA18BA19CA10E941708F801E05CFF4FEA
:100E4000718360830DC0AF968FADAF97F80180833B
:100E5000E0968FADE0978183E1968FADE197828335
:100E60008A81823239F443E2BE016F5F7F4FC8014D
:100E70000E94770481E090E0C65FDE4F0FB6F894E1
:100E8000DEBF0FBECDBFDF91CF911F910F910895AF
:100E9000CF93DF93CDB7DEB7C255D1090FB6F89423
:100EA000DEBF0FBECDBF06E011E0A1E0B1E081E002
:100EB00090E064B19D01AC010D9002C0440F551F3C
:100EC0000A94E2F74095462344B967B1F801AC01B2
:100ED000019002C0440F551F0A94E2F78F01642B62
:100EE00067B945B1BC01F901008002C0660F771FE8
:100EF0000A94E2F7462B45B971E00B301707C9F6A3
:100F00008EEF8AB9259A2D9A809181008A6080930C
:100F1000810080E49CE9909389008093880080EDB3
:100F200097E090938B0080938A0080916F00866099
:100F300080936F0084B5826084BD80EA87BD85B5EB
:100F4000816085BD82E080936E0080916B008F612F
:100F500080936B0080916800816080936800789432
:100F6000CE0101960E943D0361E080E096E90E9477
:100F7000DF0280ED97E090931A028093190284ECCF
:100F800099E090931C0280931B0288EB9BE0909366
:100F90001E0280931D028CEA9DE0909320028093B4
:100FA0001F0280EA9FE0909322028093210280E05A
:100FB00090E020E030E0AC01440F551FFA01E75EFD
:100FC000FD4F60817181260F371FFA01E15FFD4FF0
:100FD0003183208301968530910569F7FFCFA1E227
:100FE0001A2EAA1BBB1BFD010DC0AA1FBB1FEE1FA3
:100FF000FF1FA217B307E407F50720F0A21BB30BEE
:10100000E40BF50B661F771F881F991F1A9469F769
:1010100060957095809590959B01AC01BD01CF01C5
:101020000895EE0FFF1F0590F491E02D099404D070
:101030006894B11150C0089533D088F09F5790F054
:10104000B92F9927B751A0F0D1F0660F771F881FED
:10105000991F1AF0BA95C9F712C0B13081F03AD091
:10106000B1E0089537C0672F782F8827B85F39F02F
:10107000B93FCCF3869577956795B395D9F73EF44C
:1010800090958095709561957F4F8F4F9F4F0895F4
:1010900057FD9058440F551F59F05F3F71F0479529
:1010A000880F97FB991F61F09F3F79F0879508950E
:1010B000121613061406551FF2CF4695F1DF08C02D
:1010C000161617061806991FF1CF8695710561054A
:1010D00008940895E894BB2766277727CB0197F9F2
:1010E00008950BD0C1C0B2D028F0B7D018F0952326
:1010F00009F07AC0A8C01124EECFCADFA0F3959FF3
:10110000D1F3950F50E0551F629FF001729FBB27EE
:10111000F00DB11D639FAA27F00DB11DAA1F649F9A
:101120006627B00DA11D661F829F2227B00DA11D4D
:10113000621F739FB00DA11D621F839FA00D611DD3
:10114000221F749F3327A00D611D231F849F600DF4
:10115000211D822F762F6A2F11249F5750408AF02D
:10116000E1F088234AF0EE0FFF1FBB1F661F771FB9
:10117000881F91505040A9F79E3F510570F034C030
:10118000AACF5F3FECF3983EDCF3869577956795A1
:10119000B795F795E7959F5FC1F7FE2B880F911DD7
:1011A0009695879597F908957BDFE0F09E37D8F004
:1011B0009639B8F49E3848F4672F782F8827985FBF
:1011C000F9CF86957795679593959539D0F3B62F96
:1011D000B1706B0F711D811D20F487957795679510
:1011E000939508C022C077CF97F99F6780E870E099
:1011F00060E00895882371F4772321F09850872BBD
:10120000762F07C0662311F499270DC09051862BC5
:1012100070E060E02AF09A95660F771F881FDAF772
:10122000880F9695879597F908959F3F31F09150D3
:1012300020F4879577956795B795880F911D9695BA
:10124000879597F908959FEF80EC089500240A94FC
:101250001616170618060906089500240A94121691
:101260001306140605060895092E0394000C11F4C4
:10127000882352F0BB0F40F4BF2B11F460FF04C071
:0E1280006F5F7F4F8F4F9F4F0895F894FFCF01
:10128E00FF0001020304000102030400070E091C03
:10129E001B1215383F363124232A2D70777E796C38
:1012AE006B6265484F464154535A5DE0E7EEE9FCE8
:1012BE00FBF2F5D8DFD6D1C4C3CACD90979E998CD8
:1012CE008B8285A8AFA6A1B4B3BABDC7C0C9CEDB09
:1012DE00DCD5D2FFF8F1F6E3E4EDEAB7B0B9BEAB78
:1012EE00ACA5A28F88818693949D9A2720292E3BA8
:1012FE003C35321F18111603040D0A5750595E4B18
:10130E004C45426F68616673747D7A898E878095CD
:10131E00929B9CB1B6BFB8ADAAA3A4F9FEF7F0E5B7
:10132E00E2EBECC1C6CFC8DDDAD3D4696E67607567
:10133E00727B7C51565F584D4A4344191E17100557
:10134E00020B0C21262F283D3A33344E494047528A
:10135E00555C5B7671787F6A6D64633E39303722F7
:10136E00252C2B0601080F1A1D1413AEA9A0A7B227
:10137E00B5BCBB9691989F8A8D8483DED9D0D7C297
:0C138E00C5CCCBE6E1E8EFFAFDF4F3007B
:00000001FF
