:100000000C943B000C9458000C9458000C9458002D
:100010000C9458000C9458000C9458000C94580000
:100020000C9458000C9458000C9458000C945A00EE
:100030000C9458000C9458000C9458000C945800E0
:100040000C9458000C9458000C94AD000C9458007B
:100050000C94C0000C9458000C9458000C94580058
:100060000C9458000C94580044024F02610289021B
:10007000E302E302030311241FBECFEFD8E0DEBF8B
:10008000CDBF12E0A0E0B1E0EEECFCE002C00590D4
:100090000D92A030B107D9F712E0A0E0B2E001C0A4
:1000A0001D92A830B107E1F70E94DA040C946506AE
:1000B0000C9400001F920F920FB60F9211248F9391
:1000C0009F9380910002909101020196909301020A
:1000D000809300029F918F910F900FBE0F901F9001
:1000E0001895CF93C62F9C0140E050E084E0220F8A
:1000F000331F441F551F8A95D1F760E072E18AE7EC
:1001000090E00E940F05215031093093C5002093E3
:10011000C4008091C2008E608093C2008091C100B3
:1001200088618093C100CC2331F08091C100806C44
:100130008093C1007894CF9108959091C00095FF6D
:10014000FCCF8093C6001092020208958091C000F7
:1001500087FFFCCF8091C60008951F920F920FB6C3
:100160000F9211248F938091C6008093040281E046
:10017000809303028F910F900FBE0F901F901895E0
:100180001F920F920FB60F9211248F9381E08093EC
:1001900002028F910F900FBE0F901F901895CF9372
:1001A000DF93EC0161E080E091EE0E947100FE01BE
:1001B000EE5BFF4F1082118212821382FE01EA5B16
:1001C000FF4F1082118212821382FE01E65BFF4F05
:1001D0001082FE01E55BFF4F1082118212821382B2
:1001E000FE01E15BFF4F1082FE01E05BFF4F1082DA
:1001F000FE01EF5AFF4F1082188219821B821C8267
:100200001D821E821F82188619861A861B861C86EE
:100210001D861E861F86188A198A1AA61BA61CA66A
:100220001DA61EA61FA618AA19AA1AAA1BAA1DAAAD
:100230001CAA1EAA1FAA18AE19AE1BAE1AAE1DAE7E
:100240001CAE1FAE1EAEC05CDF4F19821882DF915C
:10025000CF910895089580E090E00895640F751F90
:10026000FB0182850895640F751FFB0184859585C8
:100270000895640F751FFB016485758586859785D4
:100280000895640F751FFB016485758586859785C4
:100290000895BF92CF92DF92EF92FF920F931F9338
:1002A000CF93DF938B01FB0180810E949D00E801C9
:1002B000C75FDE4F1882F801F1808F2D0E949D00EC
:1002C000EF2DFF27E7FDF0958881E827E050FF4FED
:1002D00080818883F801F2808F2D0E949D00EF2D90
:1002E000FF27E7FDF0958881E827E050FF4F8081E8
:1002F0008883F801F3808F2D0E949D00EF2DFF274A
:10030000E7FDF0958881E827E050FF4F80818883E2
:10031000F801F4808F2D0E949D00EF2DFF27E7FD4F
:10032000F0958881E827E050FF4F80818883F801AD
:10033000C480D580E680F780CD2CDE2CEF2CFF2406
:100340008C2D0E949D00EC2DFF27E7FDF095888104
:10035000E827E050FF4F80818883F801C480D58072
:10036000E680F7806701EE24FF248C2D0E949D001B
:10037000EC2DFF27E7FDF0958881E827E050FF4F3F
:1003800080818883F801C480D580E680F780CF2CF7
:10039000DD24EE24FF248C2D0E949D00EC2DFF27F0
:1003A000E7FDF0958881E827E050FF4F8081888342
:1003B000F80182819381099760F48881DF91CF9160
:1003C0001F910F91FF90EF90DF90CF90BF900C9412
:1003D0009D006801FAE0CF0ED11C76012E2D2C195C
:1003E00030E0F8018281938108972817390728F7B0
:1003F000F701B1907F018B2D0E949D00EB2DFF270F
:10040000E7FDF0958881E827E050FF4F80818883E1
:10041000E5CFCF93DF93CDB7DEB7CA50D1400FB64B
:10042000F894DEBF0FBECDBF2CE329834A8328E0BA
:1004300030E03C832B83FB014481558166817781C9
:100440004D835E836F837887BE016F5F7F4F0E940D
:100450004901C65FDE4F0FB6F894DEBF0FBECDBFB9
:10046000DF91CF9108950F931F93CF93DF93EA010C
:100470008091070290E08730910508F0CBC08C5C3A
:100480009F4FFC010C9431056C3309F0C3C081E02F
:1004900080930702688384EB80930602BBC0A0911F
:1004A0000602A627B0E0A050BF4F8C9180930602B1
:1004B000862F887F803241F582E08093070269832E
:1004C0009FC0A0910602A627B0E0A050BF4F8C911C
:1004D00080930602809105028F5F80930502062FAC
:1004E00010E0823018F41B830A8394C0102F002779
:1004F0008A819B81080F191F1B830A8308501109E9
:100500000F3F110521F018F01092070283C083E01D
:1005100075C0A0910602A627B0E0A050BF4F8C91F5
:1005200080930602409105024F5F409305024230DE
:1005300091F060F4413009F06DC0062F10E020E02A
:1005400030E00C831D832E833F8364C0433061F011
:100550004430F1F05FC0062F10E020E030E0322F91
:10056000212F102F002707C0062F10E020E030E0D9
:100570009801112700278C819D81AE81BF81800F5A
:10058000911FA21FB31F8C839D83AE83BF8342C084
:10059000062F10E020E030E0302F2227112700271F
:1005A0008C819D81AE81BF81800F911FA21FB31FDF
:1005B0008C839D83AE83BF838A819B810897E9F0FA
:1005C000409307021DC0A0910602A627B0E0A050EC
:1005D000BF4F8C9180930602209105022F5F2093DC
:1005E000050230E0DA01A20FB31F19966C938A81DD
:1005F0009B8108972817390768F086E080930702E7
:100600001092050207C0DA01A75FBE4F6C9387E026
:100610008093070280910702873011F080E00BC0C1
:100620001092070290910602DE01A75FBE4F8C91E7
:100630009813F4CF8A81DF91CF911F910F91089584
:100640000F931F93CF93DF93CDB7DEB7CA50D1403E
:100650000FB6F894DEBF0FBECDBF8C010E94A6007E
:10066000AE014F5F5F4F682FC8010E94330288239D
:1006700009F48FC14D815E816F817885423C8BEF9B
:1006800058078CEE68078CE6780709F4FDC008F07F
:100690004CC04230F9E25F07FEE76F07FFE27F07D9
:1006A00009F4A9C008F54430EAE95E07E7ED6E07F2
:1006B000EEE07E0709F4E8C038F446315A4A674351
:1006C0007B4009F4E1C05AC14E3CE8E45E07E7E52F
:1006D0006E07EAE17E0709F4DFC044375B4E6A47E4
:1006E0007B4109F4D1C04AC14E3488EC58078CEBE9
:1006F000680780E4780709F4CFC038F4463E554DCA
:100700006A4D734309F48CC039C1423E85E55807F0
:100710008CE9680786E6780709F423C14A355B4B04
:100720006743774609F467C029C14A3BF4E85F078D
:10073000F5E26F07FEEB7F0709F413C1E0F54E37D2
:10074000E2E15E07EAE66E07EBE97E0709F49CC08A
:1007500000F54A3051486D427C4809F00FC18D8543
:100760009E85AF85B889F801868F978FA0A3B1A326
:1007700089899A89AB89BC8982A393A3A4A3B5A3D1
:100780008D899E89AF89B88D86A397A3A0A7B1A7AD
:10079000F5C04630EEE05E07ECE36E07EDEA7E075B
:1007A00009F458C04A38574F674C784B09F0E6C0F7
:1007B0008DA1F8016FC0463985E3580788E06807C6
:1007C00082ED780709F4A3C038F444355D426F4FD9
:1007D000754C09F459C0D2C0443689ED580780EEF3
:1007E000680787ED7807E1F0463B5342634A724E53
:1007F00009F452C0C3C0F801EF5AFF4F8081FE01D7
:10080000E80FF11D8385823031F0833029F08111AA
:10081000B5C081E001C083E0F801E65BFF4F3AC05C
:100820008D8D9E8DAF8DB8A1F80186839783A087AB
:10083000B18789A19AA1ABA1BCA182879387A48724
:10084000B5878DA19EA1AFA1B8A586879787A08BFC
:10085000B18B94C08D859E85AF85B889F801828B58
:10086000938BA48BB58B89899A89AB89BC89868B3C
:10087000978BA08FB18F8D899E89AF89B88D828F1C
:10088000938FA48FB58F7AC08B85F80184838C8574
:10089000858374C0808372C08D859E85AF85B8893D
:1008A000F80182A793A7A4A7B5A789899A89AB89DC
:1008B000BC8986A797A7A0ABB1AB88A982AB8FA54F
:1008C00083AB6D8D7E8D8F8D98A10E943705F801C9
:1008D00075AB64AB20E030E048EC52E46D897E8972
:1008E0008F89988D0E9491050E94F4050E9437051A
:1008F000F80166AB77AB80AF91AF69A17AA18BA10C
:100900009CA10E943C05F80173AF62AF37C020E0A4
:1009100030E04AE754E46D857E858F8598890E9492
:1009200091050E943705F80175AF64AF20E030E013
:1009300048EC52E469897A898B899C890E949105E7
:100940000E943705F80177AF66AF69A17AA18BA144
:100950009CA10E943705F801E05CFF4F7183608322
:100960000DC0AF968FADAF97F8018083E0968FAD45
:10097000E0978183E1968FADE19782838A8182320D
:1009800059F443E2BE016F5F7F4FC8010E94090224
:1009900003C080E090E002C081E090E0C65FDE4FDF
:1009A0000FB6F894DEBF0FBECDBFDF91CF911F9180
:1009B0000F910895CF93DF93CDB7DEB7C255D1091C
:1009C0000FB6F894DEBF0FBECDBF3B9A8AB18066EA
:1009D0008AB920982898809181008960809381004D
:1009E00080E590E0909389008093880080916F006B
:1009F000826080936F007894CE0101960E94CF00B0
:100A000080E090E020E0189921E0189903C00E944E
:100A10009D00F6CF2223B9F3019621E0F4CFA1E2A5
:100A20001A2EAA1BBB1BFD010DC0AA1FBB1FEE1F68
:100A3000FF1FA217B307E407F50720F0A21BB30BB3
:100A4000E40BF50B661F771F881F991F1A9469F72F
:100A500060957095809590959B01AC01BD01CF018B
:100A60000895EE0FFF1F0590F491E02D099404D036
:100A70006894B11150C0089533D088F09F5790F01A
:100A8000B92F9927B751A0F0D1F0660F771F881FB3
:100A9000991F1AF0BA95C9F712C0B13081F03AD057
:100AA000B1E0089537C0672F782F8827B85F39F0F5
:100AB000B93FCCF3869577956795B395D9F73EF412
:100AC00090958095709561957F4F8F4F9F4F0895BA
:100AD00057FD9058440F551F59F05F3F71F04795EF
:100AE000880F97FB991F61F09F3F79F087950895D4
:100AF000121613061406551FF2CF4695F1DF08C0F3
:100B0000161617061806991FF1CF8695710561050F
:100B100008940895E894BB2766277727CB0197F9B7
:100B200008950BD0C1C0B2D028F0B7D018F09523EB
:100B300009F07AC0A8C01124EECFCADFA0F3959FB8
:100B4000D1F3950F50E0551F629FF001729FBB27B4
:100B5000F00DB11D639FAA27F00DB11DAA1F649F60
:100B60006627B00DA11D661F829F2227B00DA11D13
:100B7000621F739FB00DA11D621F839FA00D611D99
:100B8000221F749F3327A00D611D231F849F600DBA
:100B9000211D822F762F6A2F11249F5750408AF0F3
:100BA000E1F088234AF0EE0FFF1FBB1F661F771F7F
:100BB000881F91505040A9F79E3F510570F034C0F6
:100BC000AACF5F3FECF3983EDCF386957795679567
:100BD000B795F795E7959F5FC1F7FE2B880F911D9D
:100BE0009695879597F908957BDFE0F09E37D8F0CA
:100BF0009639B8F49E3848F4672F782F8827985F85
:100C0000F9CF86957795679593959539D0F3B62F5B
:100C1000B1706B0F711D811D20F4879577956795D5
:100C2000939508C022C077CF97F99F6780E870E05E
:100C300060E00895882371F4772321F09850872B82
:100C4000762F07C0662311F499270DC09051862B8B
:100C500070E060E02AF09A95660F771F881FDAF738
:100C6000880F9695879597F908959F3F31F0915099
:100C700020F4879577956795B795880F911D969580
:100C8000879597F908959FEF80EC089500240A94C2
:100C90001616170618060906089500240A94121657
:100CA0001306140605060895092E0394000C11F48A
:100CB000882352F0BB0F40F4BF2B11F460FF04C037
:0E0CC0006F5F7F4F8F4F9F4F0895F894FFCFC7
:100CCE0000070E091C1B1215383F363124232A2D1E
:100CDE0070777E796C6B6265484F464154535A5D0E
:100CEE00E0E7EEE9FCFBF2F5D8DFD6D1C4C3CACDFE
:100CFE0090979E998C8B8285A8AFA6A1B4B3BABDEE
:100D0E00C7C0C9CEDBDCD5D2FFF8F1F6E3E4EDEADD
:100D1E00B7B0B9BEABACA5A28F88818693949D9ACD
:100D2E002720292E3B3C35321F18111603040D0ABD
:100D3E005750595E4B4C45426F68616673747D7AAD
:100D4E00898E878095929B9CB1B6BFB8ADAAA3A49D
:100D5E00F9FEF7F0E5E2EBECC1C6CFC8DDDAD3D48D
:100D6E00696E676075727B7C51565F584D4A43447D
:100D7E00191E171005020B0C21262F283D3A33346D
:100D8E004E49404752555C5B7671787F6A6D64635D
:100D9E003E39303722252C2B0601080F1A1D14134D
:100DAE00AEA9A0A7B2B5BCBB9691989F8A8D84833D
:100DBE00DED9D0D7C2C5CCCBE6E1E8EFFAFDF4F32D
:00000001FF
